{
  "_format": "hh-sol-artifact-1",
  "contractName": "ProfileImageNfts",
  "sourceName": "contracts/MintProfileImage.sol",
  "abi": [
    {
      "inputs": [],
      "stateMutability": "nonpayable",
      "type": "constructor"
    },
    {
      "anonymous": false,
      "inputs": [
        {
          "indexed": true,
          "internalType": "address",
          "name": "owner",
          "type": "address"
        },
        {
          "indexed": true,
          "internalType": "address",
          "name": "approved",
          "type": "address"
        },
        {
          "indexed": true,
          "internalType": "uint256",
          "name": "tokenId",
          "type": "uint256"
        }
      ],
      "name": "Approval",
      "type": "event"
    },
    {
      "anonymous": false,
      "inputs": [
        {
          "indexed": true,
          "internalType": "address",
          "name": "owner",
          "type": "address"
        },
        {
          "indexed": true,
          "internalType": "address",
          "name": "operator",
          "type": "address"
        },
        {
          "indexed": false,
          "internalType": "bool",
          "name": "approved",
          "type": "bool"
        }
      ],
      "name": "ApprovalForAll",
      "type": "event"
    },
    {
      "anonymous": false,
      "inputs": [
        {
          "indexed": true,
          "internalType": "address",
          "name": "previousOwner",
          "type": "address"
        },
        {
          "indexed": true,
          "internalType": "address",
          "name": "newOwner",
          "type": "address"
        }
      ],
      "name": "OwnershipTransferred",
      "type": "event"
    },
    {
      "anonymous": false,
      "inputs": [
        {
          "indexed": true,
          "internalType": "address",
          "name": "from",
          "type": "address"
        },
        {
          "indexed": true,
          "internalType": "address",
          "name": "to",
          "type": "address"
        },
        {
          "indexed": true,
          "internalType": "uint256",
          "name": "tokenId",
          "type": "uint256"
        }
      ],
      "name": "Transfer",
      "type": "event"
    },
    {
      "inputs": [
        {
          "internalType": "address",
          "name": "to",
          "type": "address"
        },
        {
          "internalType": "uint256",
          "name": "tokenId",
          "type": "uint256"
        }
      ],
      "name": "approve",
      "outputs": [],
      "stateMutability": "nonpayable",
      "type": "function"
    },
    {
      "inputs": [
        {
          "internalType": "address",
          "name": "owner",
          "type": "address"
        }
      ],
      "name": "balanceOf",
      "outputs": [
        {
          "internalType": "uint256",
          "name": "",
          "type": "uint256"
        }
      ],
      "stateMutability": "view",
      "type": "function"
    },
    {
      "inputs": [],
      "name": "getAlltoken",
      "outputs": [
        {
          "components": [
            {
              "internalType": "uint256",
              "name": "id",
              "type": "uint256"
            },
            {
              "internalType": "string",
              "name": "uri",
              "type": "string"
            },
            {
              "internalType": "string",
              "name": "space",
              "type": "string"
            }
          ],
          "internalType": "struct ProfileImageNfts.RenderToken[]",
          "name": "",
          "type": "tuple[]"
        }
      ],
      "stateMutability": "view",
      "type": "function"
    },
    {
      "inputs": [
        {
          "internalType": "uint256",
          "name": "tokenId",
          "type": "uint256"
        }
      ],
      "name": "getApproved",
      "outputs": [
        {
          "internalType": "address",
          "name": "",
          "type": "address"
        }
      ],
      "stateMutability": "view",
      "type": "function"
    },
    {
      "inputs": [
        {
          "internalType": "address",
          "name": "owner",
          "type": "address"
        },
        {
          "internalType": "address",
          "name": "operator",
          "type": "address"
        }
      ],
      "name": "isApprovedForAll",
      "outputs": [
        {
          "internalType": "bool",
          "name": "",
          "type": "bool"
        }
      ],
      "stateMutability": "view",
      "type": "function"
    },
    {
      "inputs": [
        {
          "internalType": "address",
          "name": "recipients",
          "type": "address"
        },
        {
          "internalType": "string",
          "name": "_uri",
          "type": "string"
        }
      ],
      "name": "mint",
      "outputs": [
        {
          "internalType": "uint256",
          "name": "",
          "type": "uint256"
        }
      ],
      "stateMutability": "nonpayable",
      "type": "function"
    },
    {
      "inputs": [],
      "name": "name",
      "outputs": [
        {
          "internalType": "string",
          "name": "",
          "type": "string"
        }
      ],
      "stateMutability": "view",
      "type": "function"
    },
    {
      "inputs": [],
      "name": "owner",
      "outputs": [
        {
          "internalType": "address",
          "name": "",
          "type": "address"
        }
      ],
      "stateMutability": "view",
      "type": "function"
    },
    {
      "inputs": [
        {
          "internalType": "uint256",
          "name": "tokenId",
          "type": "uint256"
        }
      ],
      "name": "ownerOf",
      "outputs": [
        {
          "internalType": "address",
          "name": "",
          "type": "address"
        }
      ],
      "stateMutability": "view",
      "type": "function"
    },
    {
      "inputs": [],
      "name": "renounceOwnership",
      "outputs": [],
      "stateMutability": "nonpayable",
      "type": "function"
    },
    {
      "inputs": [
        {
          "internalType": "address",
          "name": "from",
          "type": "address"
        },
        {
          "internalType": "address",
          "name": "to",
          "type": "address"
        },
        {
          "internalType": "uint256",
          "name": "tokenId",
          "type": "uint256"
        }
      ],
      "name": "safeTransferFrom",
      "outputs": [],
      "stateMutability": "nonpayable",
      "type": "function"
    },
    {
      "inputs": [
        {
          "internalType": "address",
          "name": "from",
          "type": "address"
        },
        {
          "internalType": "address",
          "name": "to",
          "type": "address"
        },
        {
          "internalType": "uint256",
          "name": "tokenId",
          "type": "uint256"
        },
        {
          "internalType": "bytes",
          "name": "_data",
          "type": "bytes"
        }
      ],
      "name": "safeTransferFrom",
      "outputs": [],
      "stateMutability": "nonpayable",
      "type": "function"
    },
    {
      "inputs": [
        {
          "internalType": "address",
          "name": "operator",
          "type": "address"
        },
        {
          "internalType": "bool",
          "name": "approved",
          "type": "bool"
        }
      ],
      "name": "setApprovalForAll",
      "outputs": [],
      "stateMutability": "nonpayable",
      "type": "function"
    },
    {
      "inputs": [
        {
          "internalType": "bytes4",
          "name": "interfaceId",
          "type": "bytes4"
        }
      ],
      "name": "supportsInterface",
      "outputs": [
        {
          "internalType": "bool",
          "name": "",
          "type": "bool"
        }
      ],
      "stateMutability": "view",
      "type": "function"
    },
    {
      "inputs": [],
      "name": "symbol",
      "outputs": [
        {
          "internalType": "string",
          "name": "",
          "type": "string"
        }
      ],
      "stateMutability": "view",
      "type": "function"
    },
    {
      "inputs": [
        {
          "internalType": "uint256",
          "name": "tokenId",
          "type": "uint256"
        }
      ],
      "name": "tokenURI",
      "outputs": [
        {
          "internalType": "string",
          "name": "",
          "type": "string"
        }
      ],
      "stateMutability": "view",
      "type": "function"
    },
    {
      "inputs": [
        {
          "internalType": "address",
          "name": "from",
          "type": "address"
        },
        {
          "internalType": "address",
          "name": "to",
          "type": "address"
        },
        {
          "internalType": "uint256",
          "name": "tokenId",
          "type": "uint256"
        }
      ],
      "name": "transferFrom",
      "outputs": [],
      "stateMutability": "nonpayable",
      "type": "function"
    },
    {
      "inputs": [
        {
          "internalType": "address",
          "name": "newOwner",
          "type": "address"
        }
      ],
      "name": "transferOwnership",
      "outputs": [],
      "stateMutability": "nonpayable",
      "type": "function"
    }
  ],
  "bytecode": "0x60806040523480156200001157600080fd5b506040518060400160405280601081526020017f50726f66696c65496d6167654e667473000000000000000000000000000000008152506040518060400160405280600381526020017f50494e0000000000000000000000000000000000000000000000000000000000815250816000908051906020019062000096929190620001a6565b508060019080519060200190620000af929190620001a6565b505050620000d2620000c6620000d860201b60201c565b620000e060201b60201c565b620002bb565b600033905090565b6000600660009054906101000a900473ffffffffffffffffffffffffffffffffffffffff16905081600660006101000a81548173ffffffffffffffffffffffffffffffffffffffff021916908373ffffffffffffffffffffffffffffffffffffffff1602179055508173ffffffffffffffffffffffffffffffffffffffff168173ffffffffffffffffffffffffffffffffffffffff167f8be0079c531659141344cd1fd0a4f28419497f9722a3daafe3b4186f6b6457e060405160405180910390a35050565b828054620001b49062000256565b90600052602060002090601f016020900481019282620001d8576000855562000224565b82601f10620001f357805160ff191683800117855562000224565b8280016001018555821562000224579182015b828111156200022357825182559160200191906001019062000206565b5b50905062000233919062000237565b5090565b5b808211156200025257600081600090555060010162000238565b5090565b600060028204905060018216806200026f57607f821691505b602082108114156200028657620002856200028c565b5b50919050565b7f4e487b7100000000000000000000000000000000000000000000000000000000600052602260045260246000fd5b612d3c80620002cb6000396000f3fe608060405234801561001057600080fd5b50600436106101165760003560e01c8063715018a6116100a2578063b88d4fde11610071578063b88d4fde146102cd578063c87b56dd146102e9578063d0def52114610319578063e985e9c514610349578063f2fde38b1461037957610116565b8063715018a61461026b5780638da5cb5b1461027557806395d89b4114610293578063a22cb465146102b157610116565b806323b872dd116100e957806323b872dd146101b557806328904431146101d157806342842e0e146101ef5780636352211e1461020b57806370a082311461023b57610116565b806301ffc9a71461011b57806306fdde031461014b578063081812fc14610169578063095ea7b314610199575b600080fd5b61013560048036038101906101309190611d92565b610395565b604051610142919061228d565b60405180910390f35b610153610477565b60405161016091906122a8565b60405180910390f35b610183600480360381019061017e9190611de4565b610509565b6040516101909190612204565b60405180910390f35b6101b360048036038101906101ae9190611d56565b61058e565b005b6101cf60048036038101906101ca9190611bfc565b6106a6565b005b6101d9610706565b6040516101e6919061226b565b60405180910390f35b61020960048036038101906102049190611bfc565b610845565b005b61022560048036038101906102209190611de4565b610865565b6040516102329190612204565b60405180910390f35b61025560048036038101906102509190611b97565b610917565b60405161026291906124ca565b60405180910390f35b6102736109cf565b005b61027d610a57565b60405161028a9190612204565b60405180910390f35b61029b610a81565b6040516102a891906122a8565b60405180910390f35b6102cb60048036038101906102c69190611cc6565b610b13565b005b6102e760048036038101906102e29190611c4b565b610b29565b005b61030360048036038101906102fe9190611de4565b610b8b565b60405161031091906122a8565b60405180910390f35b610333600480360381019061032e9190611d02565b610c7e565b60405161034091906124ca565b60405180910390f35b610363600480360381019061035e9190611bc0565b610cb5565b604051610370919061228d565b60405180910390f35b610393600480360381019061038e9190611b97565b610d49565b005b60007f80ac58cd000000000000000000000000000000000000000000000000000000007bffffffffffffffffffffffffffffffffffffffffffffffffffffffff1916827bffffffffffffffffffffffffffffffffffffffffffffffffffffffff1916148061046057507f5b5e139f000000000000000000000000000000000000000000000000000000007bffffffffffffffffffffffffffffffffffffffffffffffffffffffff1916827bffffffffffffffffffffffffffffffffffffffffffffffffffffffff1916145b80610470575061046f82610e41565b5b9050919050565b6060600080546104869061272e565b80601f01602080910402602001604051908101604052809291908181526020018280546104b29061272e565b80156104ff5780601f106104d4576101008083540402835291602001916104ff565b820191906000526020600020905b8154815290600101906020018083116104e257829003601f168201915b5050505050905090565b600061051482610eab565b610553576040517f08c379a000000000000000000000000000000000000000000000000000000000815260040161054a9061242a565b60405180910390fd5b6004600083815260200190815260200160002060009054906101000a900473ffffffffffffffffffffffffffffffffffffffff169050919050565b600061059982610865565b90508073ffffffffffffffffffffffffffffffffffffffff168373ffffffffffffffffffffffffffffffffffffffff16141561060a576040517f08c379a00000000000000000000000000000000000000000000000000000000081526004016106019061246a565b60405180910390fd5b8073ffffffffffffffffffffffffffffffffffffffff16610629610f17565b73ffffffffffffffffffffffffffffffffffffffff161480610658575061065781610652610f17565b610cb5565b5b610697576040517f08c379a000000000000000000000000000000000000000000000000000000000815260040161068e906123aa565b60405180910390fd5b6106a18383610f1f565b505050565b6106b76106b1610f17565b82610fd8565b6106f6576040517f08c379a00000000000000000000000000000000000000000000000000000000081526004016106ed9061248a565b60405180910390fd5b6107018383836110b6565b505050565b60606000610714600761131d565b905060008167ffffffffffffffff811115610758577f4e487b7100000000000000000000000000000000000000000000000000000000600052604160045260246000fd5b60405190808252806020026020018201604052801561079157816020015b61077e61199a565b8152602001906001900390816107765790505b50905060005b82811161083c576107a781610eab565b156108295760006107b782610b8b565b905060405180606001604052808381526020018281526020016040518060200160405280600081525081525083838151811061081c577f4e487b7100000000000000000000000000000000000000000000000000000000600052603260045260246000fd5b6020026020010181905250505b808061083490612791565b915050610797565b50809250505090565b61086083838360405180602001604052806000815250610b29565b505050565b6000806002600084815260200190815260200160002060009054906101000a900473ffffffffffffffffffffffffffffffffffffffff169050600073ffffffffffffffffffffffffffffffffffffffff168173ffffffffffffffffffffffffffffffffffffffff16141561090e576040517f08c379a0000000000000000000000000000000000000000000000000000000008152600401610905906123ea565b60405180910390fd5b80915050919050565b60008073ffffffffffffffffffffffffffffffffffffffff168273ffffffffffffffffffffffffffffffffffffffff161415610988576040517f08c379a000000000000000000000000000000000000000000000000000000000815260040161097f906123ca565b60405180910390fd5b600360008373ffffffffffffffffffffffffffffffffffffffff1673ffffffffffffffffffffffffffffffffffffffff168152602001908152602001600020549050919050565b6109d7610f17565b73ffffffffffffffffffffffffffffffffffffffff166109f5610a57565b73ffffffffffffffffffffffffffffffffffffffff1614610a4b576040517f08c379a0000000000000000000000000000000000000000000000000000000008152600401610a429061244a565b60405180910390fd5b610a55600061132b565b565b6000600660009054906101000a900473ffffffffffffffffffffffffffffffffffffffff16905090565b606060018054610a909061272e565b80601f0160208091040260200160405190810160405280929190818152602001828054610abc9061272e565b8015610b095780601f10610ade57610100808354040283529160200191610b09565b820191906000526020600020905b815481529060010190602001808311610aec57829003601f168201915b5050505050905090565b610b25610b1e610f17565b83836113f1565b5050565b610b3a610b34610f17565b83610fd8565b610b79576040517f08c379a0000000000000000000000000000000000000000000000000000000008152600401610b709061248a565b60405180910390fd5b610b858484848461155e565b50505050565b6060610b9682610eab565b610bd5576040517f08c379a0000000000000000000000000000000000000000000000000000000008152600401610bcc906124aa565b60405180910390fd5b6000600860008481526020019081526020016000208054610bf59061272e565b80601f0160208091040260200160405190810160405280929190818152602001828054610c219061272e565b8015610c6e5780601f10610c4357610100808354040283529160200191610c6e565b820191906000526020600020905b815481529060010190602001808311610c5157829003601f168201915b5050505050905080915050919050565b600080610c8b600761131d565b9050610c9784826115ba565b610ca18184611794565b610cab60076117c0565b8091505092915050565b6000600560008473ffffffffffffffffffffffffffffffffffffffff1673ffffffffffffffffffffffffffffffffffffffff16815260200190815260200160002060008373ffffffffffffffffffffffffffffffffffffffff1673ffffffffffffffffffffffffffffffffffffffff16815260200190815260200160002060009054906101000a900460ff16905092915050565b610d51610f17565b73ffffffffffffffffffffffffffffffffffffffff16610d6f610a57565b73ffffffffffffffffffffffffffffffffffffffff1614610dc5576040517f08c379a0000000000000000000000000000000000000000000000000000000008152600401610dbc9061244a565b60405180910390fd5b600073ffffffffffffffffffffffffffffffffffffffff168173ffffffffffffffffffffffffffffffffffffffff161415610e35576040517f08c379a0000000000000000000000000000000000000000000000000000000008152600401610e2c906122ea565b60405180910390fd5b610e3e8161132b565b50565b60007f01ffc9a7000000000000000000000000000000000000000000000000000000007bffffffffffffffffffffffffffffffffffffffffffffffffffffffff1916827bffffffffffffffffffffffffffffffffffffffffffffffffffffffff1916149050919050565b60008073ffffffffffffffffffffffffffffffffffffffff166002600084815260200190815260200160002060009054906101000a900473ffffffffffffffffffffffffffffffffffffffff1673ffffffffffffffffffffffffffffffffffffffff1614159050919050565b600033905090565b816004600083815260200190815260200160002060006101000a81548173ffffffffffffffffffffffffffffffffffffffff021916908373ffffffffffffffffffffffffffffffffffffffff160217905550808273ffffffffffffffffffffffffffffffffffffffff16610f9283610865565b73ffffffffffffffffffffffffffffffffffffffff167f8c5be1e5ebec7d5bd14f71427d1e84f3dd0314c0f7b2291e5b200ac8c7c3b92560405160405180910390a45050565b6000610fe382610eab565b611022576040517f08c379a00000000000000000000000000000000000000000000000000000000081526004016110199061238a565b60405180910390fd5b600061102d83610865565b90508073ffffffffffffffffffffffffffffffffffffffff168473ffffffffffffffffffffffffffffffffffffffff16148061109c57508373ffffffffffffffffffffffffffffffffffffffff1661108484610509565b73ffffffffffffffffffffffffffffffffffffffff16145b806110ad57506110ac8185610cb5565b5b91505092915050565b8273ffffffffffffffffffffffffffffffffffffffff166110d682610865565b73ffffffffffffffffffffffffffffffffffffffff161461112c576040517f08c379a00000000000000000000000000000000000000000000000000000000081526004016111239061230a565b60405180910390fd5b600073ffffffffffffffffffffffffffffffffffffffff168273ffffffffffffffffffffffffffffffffffffffff16141561119c576040517f08c379a00000000000000000000000000000000000000000000000000000000081526004016111939061234a565b60405180910390fd5b6111a78383836117d6565b6111b2600082610f1f565b6001600360008573ffffffffffffffffffffffffffffffffffffffff1673ffffffffffffffffffffffffffffffffffffffff16815260200190815260200160002060008282546112029190612644565b925050819055506001600360008473ffffffffffffffffffffffffffffffffffffffff1673ffffffffffffffffffffffffffffffffffffffff168152602001908152602001600020600082825461125991906125ee565b92505081905550816002600083815260200190815260200160002060006101000a81548173ffffffffffffffffffffffffffffffffffffffff021916908373ffffffffffffffffffffffffffffffffffffffff160217905550808273ffffffffffffffffffffffffffffffffffffffff168473ffffffffffffffffffffffffffffffffffffffff167fddf252ad1be2c89b69c2b068fc378daa952ba7f163c4a11628f55a4df523b3ef60405160405180910390a46113188383836117db565b505050565b600081600001549050919050565b6000600660009054906101000a900473ffffffffffffffffffffffffffffffffffffffff16905081600660006101000a81548173ffffffffffffffffffffffffffffffffffffffff021916908373ffffffffffffffffffffffffffffffffffffffff1602179055508173ffffffffffffffffffffffffffffffffffffffff168173ffffffffffffffffffffffffffffffffffffffff167f8be0079c531659141344cd1fd0a4f28419497f9722a3daafe3b4186f6b6457e060405160405180910390a35050565b8173ffffffffffffffffffffffffffffffffffffffff168373ffffffffffffffffffffffffffffffffffffffff161415611460576040517f08c379a00000000000000000000000000000000000000000000000000000000081526004016114579061236a565b60405180910390fd5b80600560008573ffffffffffffffffffffffffffffffffffffffff1673ffffffffffffffffffffffffffffffffffffffff16815260200190815260200160002060008473ffffffffffffffffffffffffffffffffffffffff1673ffffffffffffffffffffffffffffffffffffffff16815260200190815260200160002060006101000a81548160ff0219169083151502179055508173ffffffffffffffffffffffffffffffffffffffff168373ffffffffffffffffffffffffffffffffffffffff167f17307eab39ab6107e8899845ad3d59bd9653f200f220920489ca2b5937696c3183604051611551919061228d565b60405180910390a3505050565b6115698484846110b6565b611575848484846117e0565b6115b4576040517f08c379a00000000000000000000000000000000000000000000000000000000081526004016115ab906122ca565b60405180910390fd5b50505050565b600073ffffffffffffffffffffffffffffffffffffffff168273ffffffffffffffffffffffffffffffffffffffff16141561162a576040517f08c379a00000000000000000000000000000000000000000000000000000000081526004016116219061240a565b60405180910390fd5b61163381610eab565b15611673576040517f08c379a000000000000000000000000000000000000000000000000000000000815260040161166a9061232a565b60405180910390fd5b61167f600083836117d6565b6001600360008473ffffffffffffffffffffffffffffffffffffffff1673ffffffffffffffffffffffffffffffffffffffff16815260200190815260200160002060008282546116cf91906125ee565b92505081905550816002600083815260200190815260200160002060006101000a81548173ffffffffffffffffffffffffffffffffffffffff021916908373ffffffffffffffffffffffffffffffffffffffff160217905550808273ffffffffffffffffffffffffffffffffffffffff16600073ffffffffffffffffffffffffffffffffffffffff167fddf252ad1be2c89b69c2b068fc378daa952ba7f163c4a11628f55a4df523b3ef60405160405180910390a4611790600083836117db565b5050565b806008600084815260200190815260200160002090805190602001906117bb9291906119bb565b505050565b6001816000016000828254019250508190555050565b505050565b505050565b60006118018473ffffffffffffffffffffffffffffffffffffffff16611977565b1561196a578373ffffffffffffffffffffffffffffffffffffffff1663150b7a0261182a610f17565b8786866040518563ffffffff1660e01b815260040161184c949392919061221f565b602060405180830381600087803b15801561186657600080fd5b505af192505050801561189757506040513d601f19601f820116820180604052508101906118949190611dbb565b60015b61191a573d80600081146118c7576040519150601f19603f3d011682016040523d82523d6000602084013e6118cc565b606091505b50600081511415611912576040517f08c379a0000000000000000000000000000000000000000000000000000000008152600401611909906122ca565b60405180910390fd5b805181602001fd5b63150b7a0260e01b7bffffffffffffffffffffffffffffffffffffffffffffffffffffffff1916817bffffffffffffffffffffffffffffffffffffffffffffffffffffffff19161491505061196f565b600190505b949350505050565b6000808273ffffffffffffffffffffffffffffffffffffffff163b119050919050565b60405180606001604052806000815260200160608152602001606081525090565b8280546119c79061272e565b90600052602060002090601f0160209004810192826119e95760008555611a30565b82601f10611a0257805160ff1916838001178555611a30565b82800160010185558215611a30579182015b82811115611a2f578251825591602001919060010190611a14565b5b509050611a3d9190611a41565b5090565b5b80821115611a5a576000816000905550600101611a42565b5090565b6000611a71611a6c8461250a565b6124e5565b905082815260208101848484011115611a8957600080fd5b611a948482856126ec565b509392505050565b6000611aaf611aaa8461253b565b6124e5565b905082815260208101848484011115611ac757600080fd5b611ad28482856126ec565b509392505050565b600081359050611ae981612caa565b92915050565b600081359050611afe81612cc1565b92915050565b600081359050611b1381612cd8565b92915050565b600081519050611b2881612cd8565b92915050565b600082601f830112611b3f57600080fd5b8135611b4f848260208601611a5e565b91505092915050565b600082601f830112611b6957600080fd5b8135611b79848260208601611a9c565b91505092915050565b600081359050611b9181612cef565b92915050565b600060208284031215611ba957600080fd5b6000611bb784828501611ada565b91505092915050565b60008060408385031215611bd357600080fd5b6000611be185828601611ada565b9250506020611bf285828601611ada565b9150509250929050565b600080600060608486031215611c1157600080fd5b6000611c1f86828701611ada565b9350506020611c3086828701611ada565b9250506040611c4186828701611b82565b9150509250925092565b60008060008060808587031215611c6157600080fd5b6000611c6f87828801611ada565b9450506020611c8087828801611ada565b9350506040611c9187828801611b82565b925050606085013567ffffffffffffffff811115611cae57600080fd5b611cba87828801611b2e565b91505092959194509250565b60008060408385031215611cd957600080fd5b6000611ce785828601611ada565b9250506020611cf885828601611aef565b9150509250929050565b60008060408385031215611d1557600080fd5b6000611d2385828601611ada565b925050602083013567ffffffffffffffff811115611d4057600080fd5b611d4c85828601611b58565b9150509250929050565b60008060408385031215611d6957600080fd5b6000611d7785828601611ada565b9250506020611d8885828601611b82565b9150509250929050565b600060208284031215611da457600080fd5b6000611db284828501611b04565b91505092915050565b600060208284031215611dcd57600080fd5b6000611ddb84828501611b19565b91505092915050565b600060208284031215611df657600080fd5b6000611e0484828501611b82565b91505092915050565b6000611e19838361218f565b905092915050565b611e2a81612678565b82525050565b6000611e3b8261257c565b611e4581856125aa565b935083602082028501611e578561256c565b8060005b85811015611e935784840389528151611e748582611e0d565b9450611e7f8361259d565b925060208a01995050600181019050611e5b565b50829750879550505050505092915050565b611eae8161268a565b82525050565b6000611ebf82612587565b611ec981856125bb565b9350611ed98185602086016126fb565b611ee281612867565b840191505092915050565b6000611ef882612592565b611f0281856125cc565b9350611f128185602086016126fb565b611f1b81612867565b840191505092915050565b6000611f3182612592565b611f3b81856125dd565b9350611f4b8185602086016126fb565b611f5481612867565b840191505092915050565b6000611f6c6032836125dd565b9150611f7782612878565b604082019050919050565b6000611f8f6026836125dd565b9150611f9a826128c7565b604082019050919050565b6000611fb26025836125dd565b9150611fbd82612916565b604082019050919050565b6000611fd5601c836125dd565b9150611fe082612965565b602082019050919050565b6000611ff86024836125dd565b91506120038261298e565b604082019050919050565b600061201b6019836125dd565b9150612026826129dd565b602082019050919050565b600061203e602c836125dd565b915061204982612a06565b604082019050919050565b60006120616038836125dd565b915061206c82612a55565b604082019050919050565b6000612084602a836125dd565b915061208f82612aa4565b604082019050919050565b60006120a76029836125dd565b91506120b282612af3565b604082019050919050565b60006120ca6020836125dd565b91506120d582612b42565b602082019050919050565b60006120ed602c836125dd565b91506120f882612b6b565b604082019050919050565b60006121106020836125dd565b915061211b82612bba565b602082019050919050565b60006121336021836125dd565b915061213e82612be3565b604082019050919050565b60006121566031836125dd565b915061216182612c32565b604082019050919050565b6000612179601d836125dd565b915061218482612c81565b602082019050919050565b60006060830160008301516121a760008601826121e6565b50602083015184820360208601526121bf8282611eed565b915050604083015184820360408601526121d98282611eed565b9150508091505092915050565b6121ef816126e2565b82525050565b6121fe816126e2565b82525050565b60006020820190506122196000830184611e21565b92915050565b60006080820190506122346000830187611e21565b6122416020830186611e21565b61224e60408301856121f5565b81810360608301526122608184611eb4565b905095945050505050565b600060208201905081810360008301526122858184611e30565b905092915050565b60006020820190506122a26000830184611ea5565b92915050565b600060208201905081810360008301526122c28184611f26565b905092915050565b600060208201905081810360008301526122e381611f5f565b9050919050565b6000602082019050818103600083015261230381611f82565b9050919050565b6000602082019050818103600083015261232381611fa5565b9050919050565b6000602082019050818103600083015261234381611fc8565b9050919050565b6000602082019050818103600083015261236381611feb565b9050919050565b600060208201905081810360008301526123838161200e565b9050919050565b600060208201905081810360008301526123a381612031565b9050919050565b600060208201905081810360008301526123c381612054565b9050919050565b600060208201905081810360008301526123e381612077565b9050919050565b600060208201905081810360008301526124038161209a565b9050919050565b60006020820190508181036000830152612423816120bd565b9050919050565b60006020820190508181036000830152612443816120e0565b9050919050565b6000602082019050818103600083015261246381612103565b9050919050565b6000602082019050818103600083015261248381612126565b9050919050565b600060208201905081810360008301526124a381612149565b9050919050565b600060208201905081810360008301526124c38161216c565b9050919050565b60006020820190506124df60008301846121f5565b92915050565b60006124ef612500565b90506124fb8282612760565b919050565b6000604051905090565b600067ffffffffffffffff82111561252557612524612838565b5b61252e82612867565b9050602081019050919050565b600067ffffffffffffffff82111561255657612555612838565b5b61255f82612867565b9050602081019050919050565b6000819050602082019050919050565b600081519050919050565b600081519050919050565b600081519050919050565b6000602082019050919050565b600082825260208201905092915050565b600082825260208201905092915050565b600082825260208201905092915050565b600082825260208201905092915050565b60006125f9826126e2565b9150612604836126e2565b9250827fffffffffffffffffffffffffffffffffffffffffffffffffffffffffffffffff03821115612639576126386127da565b5b828201905092915050565b600061264f826126e2565b915061265a836126e2565b92508282101561266d5761266c6127da565b5b828203905092915050565b6000612683826126c2565b9050919050565b60008115159050919050565b60007fffffffff0000000000000000000000000000000000000000000000000000000082169050919050565b600073ffffffffffffffffffffffffffffffffffffffff82169050919050565b6000819050919050565b82818337600083830152505050565b60005b838110156127195780820151818401526020810190506126fe565b83811115612728576000848401525b50505050565b6000600282049050600182168061274657607f821691505b6020821081141561275a57612759612809565b5b50919050565b61276982612867565b810181811067ffffffffffffffff8211171561278857612787612838565b5b80604052505050565b600061279c826126e2565b91507fffffffffffffffffffffffffffffffffffffffffffffffffffffffffffffffff8214156127cf576127ce6127da565b5b600182019050919050565b7f4e487b7100000000000000000000000000000000000000000000000000000000600052601160045260246000fd5b7f4e487b7100000000000000000000000000000000000000000000000000000000600052602260045260246000fd5b7f4e487b7100000000000000000000000000000000000000000000000000000000600052604160045260246000fd5b6000601f19601f8301169050919050565b7f4552433732313a207472616e7366657220746f206e6f6e20455243373231526560008201527f63656976657220696d706c656d656e7465720000000000000000000000000000602082015250565b7f4f776e61626c653a206e6577206f776e657220697320746865207a65726f206160008201527f6464726573730000000000000000000000000000000000000000000000000000602082015250565b7f4552433732313a207472616e736665722066726f6d20696e636f72726563742060008201527f6f776e6572000000000000000000000000000000000000000000000000000000602082015250565b7f4552433732313a20746f6b656e20616c7265616479206d696e74656400000000600082015250565b7f4552433732313a207472616e7366657220746f20746865207a65726f2061646460008201527f7265737300000000000000000000000000000000000000000000000000000000602082015250565b7f4552433732313a20617070726f766520746f2063616c6c657200000000000000600082015250565b7f4552433732313a206f70657261746f7220717565727920666f72206e6f6e657860008201527f697374656e7420746f6b656e0000000000000000000000000000000000000000602082015250565b7f4552433732313a20617070726f76652063616c6c6572206973206e6f74206f7760008201527f6e6572206e6f7220617070726f76656420666f7220616c6c0000000000000000602082015250565b7f4552433732313a2062616c616e636520717565727920666f7220746865207a6560008201527f726f206164647265737300000000000000000000000000000000000000000000602082015250565b7f4552433732313a206f776e657220717565727920666f72206e6f6e657869737460008201527f656e7420746f6b656e0000000000000000000000000000000000000000000000602082015250565b7f4552433732313a206d696e7420746f20746865207a65726f2061646472657373600082015250565b7f4552433732313a20617070726f76656420717565727920666f72206e6f6e657860008201527f697374656e7420746f6b656e0000000000000000000000000000000000000000602082015250565b7f4f776e61626c653a2063616c6c6572206973206e6f7420746865206f776e6572600082015250565b7f4552433732313a20617070726f76616c20746f2063757272656e74206f776e6560008201527f7200000000000000000000000000000000000000000000000000000000000000602082015250565b7f4552433732313a207472616e736665722063616c6c6572206973206e6f74206f60008201527f776e6572206e6f7220617070726f766564000000000000000000000000000000602082015250565b7f55524920646f6573206e6f74206578697374206f6e2074686174204944000000600082015250565b612cb381612678565b8114612cbe57600080fd5b50565b612cca8161268a565b8114612cd557600080fd5b50565b612ce181612696565b8114612cec57600080fd5b50565b612cf8816126e2565b8114612d0357600080fd5b5056fea26469706673582212201e2b735f332ce1de99f2d624847d9d275608794f73fe851b26fe257eb30e3ede64736f6c63430008020033",
  "linkReferences": {},
  "deployedLinkReferences": {}
}